{
  "contractName": "Applicaboard",
  "abi": [
    {
      "constant": true,
      "inputs": [
        {
          "name": "",
          "type": "uint256"
        }
      ],
      "name": "_applications",
      "outputs": [
        {
          "name": "applicant",
          "type": "address"
        },
        {
          "name": "text",
          "type": "string"
        },
        {
          "name": "resolved",
          "type": "bool"
        },
        {
          "name": "response",
          "type": "string"
        }
      ],
      "payable": false,
      "stateMutability": "view",
      "type": "function",
      "signature": "0xce9ef93f"
    },
    {
      "inputs": [],
      "payable": false,
      "stateMutability": "nonpayable",
      "type": "constructor",
      "signature": "constructor"
    },
    {
      "anonymous": false,
      "inputs": [
        {
          "indexed": false,
          "name": "applicationId",
          "type": "uint256"
        },
        {
          "indexed": false,
          "name": "applicant",
          "type": "address"
        },
        {
          "indexed": false,
          "name": "text",
          "type": "string"
        }
      ],
      "name": "NewApplication",
      "type": "event",
      "signature": "0xa5ec2c23a5eafb994cea650859ce970b8be2b881ee99bda2c95c444626b16463"
    },
    {
      "anonymous": false,
      "inputs": [
        {
          "indexed": false,
          "name": "applicationId",
          "type": "uint256"
        },
        {
          "indexed": false,
          "name": "applicant",
          "type": "address"
        },
        {
          "indexed": false,
          "name": "text",
          "type": "string"
        },
        {
          "indexed": false,
          "name": "response",
          "type": "string"
        }
      ],
      "name": "NewResponse",
      "type": "event",
      "signature": "0x39b51146af4086f9bd357420cf2a6ffbf093b89dc78f82f7413efcf8a22a14d7"
    },
    {
      "constant": true,
      "inputs": [],
      "name": "getApplicationsCount",
      "outputs": [
        {
          "name": "",
          "type": "uint256"
        }
      ],
      "payable": false,
      "stateMutability": "view",
      "type": "function",
      "signature": "0x65bcc7c4"
    },
    {
      "constant": false,
      "inputs": [
        {
          "name": "text",
          "type": "string"
        }
      ],
      "name": "createApplication",
      "outputs": [],
      "payable": false,
      "stateMutability": "nonpayable",
      "type": "function",
      "signature": "0xbaee46e4"
    },
    {
      "constant": false,
      "inputs": [
        {
          "name": "applicationId",
          "type": "uint256"
        },
        {
          "name": "response",
          "type": "string"
        }
      ],
      "name": "createResponse",
      "outputs": [],
      "payable": false,
      "stateMutability": "nonpayable",
      "type": "function",
      "signature": "0x8930fd15"
    }
  ],
  "bytecode": "0x608060405234801561001057600080fd5b50336000806101000a81548173ffffffffffffffffffffffffffffffffffffffff021916908373ffffffffffffffffffffffffffffffffffffffff160217905550610b54806100606000396000f3fe608060405260043610610062576000357c0100000000000000000000000000000000000000000000000000000000900463ffffffff16806365bcc7c4146100675780638930fd1514610092578063baee46e414610164578063ce9ef93f1461022c575b600080fd5b34801561007357600080fd5b5061007c61038a565b6040518082815260200191505060405180910390f35b34801561009e57600080fd5b50610162600480360360408110156100b557600080fd5b8101908080359060200190929190803590602001906401000000008111156100dc57600080fd5b8201836020820111156100ee57600080fd5b8035906020019184600183028401116401000000008311171561011057600080fd5b91908080601f016020809104026020016040519081016040528093929190818152602001838380828437600081840152601f19601f820116905080830192505050505050509192919290505050610397565b005b34801561017057600080fd5b5061022a6004803603602081101561018757600080fd5b81019080803590602001906401000000008111156101a457600080fd5b8201836020820111156101b657600080fd5b803590602001918460018302840111640100000000831117156101d857600080fd5b91908080601f016020809104026020016040519081016040528093929190818152602001838380828437600081840152601f19601f820116905080830192505050505050509192919290505050610615565b005b34801561023857600080fd5b506102656004803603602081101561024f57600080fd5b8101908080359060200190929190505050610826565b604051808573ffffffffffffffffffffffffffffffffffffffff1673ffffffffffffffffffffffffffffffffffffffff168152602001806020018415151515815260200180602001838103835286818151815260200191508051906020019080838360005b838110156102e55780820151818401526020810190506102ca565b50505050905090810190601f1680156103125780820380516001836020036101000a031916815260200191505b50838103825284818151815260200191508051906020019080838360005b8381101561034b578082015181840152602081019050610330565b50505050905090810190601f1680156103785780820380516001836020036101000a031916815260200191505b50965050505050505060405180910390f35b6000600180549050905090565b6000809054906101000a900473ffffffffffffffffffffffffffffffffffffffff1673ffffffffffffffffffffffffffffffffffffffff163373ffffffffffffffffffffffffffffffffffffffff161415156103f257600080fd5b600060018381548110151561040357fe5b906000526020600020906004020190508060020160009054906101000a900460ff1615151561043157600080fd5b60018160020160006101000a81548160ff021916908315150217905550818160030190805190602001906104669291906109c2565b507f39b51146af4086f9bd357420cf2a6ffbf093b89dc78f82f7413efcf8a22a14d7838260000160009054906101000a900473ffffffffffffffffffffffffffffffffffffffff168360010184600301604051808581526020018473ffffffffffffffffffffffffffffffffffffffff1673ffffffffffffffffffffffffffffffffffffffff168152602001806020018060200183810383528581815460018160011615610100020316600290048152602001915080546001816001161561010002031660029004801561057b5780601f106105505761010080835404028352916020019161057b565b820191906000526020600020905b81548152906001019060200180831161055e57829003601f168201915b50508381038252848181546001816001161561010002031660029004815260200191508054600181600116156101000203166002900480156105fe5780601f106105d3576101008083540402835291602001916105fe565b820191906000526020600020905b8154815290600101906020018083116105e157829003601f168201915b5050965050505050505060405180910390a1505050565b61061d610a42565b6080604051908101604052803373ffffffffffffffffffffffffffffffffffffffff168152602001838152602001600015158152602001602060405190810160405280600081525081525090506000600180839080600181540180825580915050906001820390600052602060002090600402016000909192909190915060008201518160000160006101000a81548173ffffffffffffffffffffffffffffffffffffffff021916908373ffffffffffffffffffffffffffffffffffffffff16021790555060208201518160010190805190602001906106fe929190610a83565b5060408201518160020160006101000a81548160ff021916908315150217905550606082015181600301908051906020019061073b929190610a83565b5050500390507fa5ec2c23a5eafb994cea650859ce970b8be2b881ee99bda2c95c444626b164638183600001518460200151604051808481526020018373ffffffffffffffffffffffffffffffffffffffff1673ffffffffffffffffffffffffffffffffffffffff16815260200180602001828103825283818151815260200191508051906020019080838360005b838110156107e55780820151818401526020810190506107ca565b50505050905090810190601f1680156108125780820380516001836020036101000a031916815260200191505b5094505050505060405180910390a1505050565b60018181548110151561083557fe5b90600052602060002090600402016000915090508060000160009054906101000a900473ffffffffffffffffffffffffffffffffffffffff1690806001018054600181600116156101000203166002900480601f0160208091040260200160405190810160405280929190818152602001828054600181600116156101000203166002900480156109075780601f106108dc57610100808354040283529160200191610907565b820191906000526020600020905b8154815290600101906020018083116108ea57829003601f168201915b5050505050908060020160009054906101000a900460ff1690806003018054600181600116156101000203166002900480601f0160208091040260200160405190810160405280929190818152602001828054600181600116156101000203166002900480156109b85780601f1061098d576101008083540402835291602001916109b8565b820191906000526020600020905b81548152906001019060200180831161099b57829003601f168201915b5050505050905084565b828054600181600116156101000203166002900490600052602060002090601f016020900481019282601f10610a0357805160ff1916838001178555610a31565b82800160010185558215610a31579182015b82811115610a30578251825591602001919060010190610a15565b5b509050610a3e9190610b03565b5090565b608060405190810160405280600073ffffffffffffffffffffffffffffffffffffffff16815260200160608152602001600015158152602001606081525090565b828054600181600116156101000203166002900490600052602060002090601f016020900481019282601f10610ac457805160ff1916838001178555610af2565b82800160010185558215610af2579182015b82811115610af1578251825591602001919060010190610ad6565b5b509050610aff9190610b03565b5090565b610b2591905b80821115610b21576000816000905550600101610b09565b5090565b9056fea165627a7a72305820e0452c97cc04481e842c91f0cd0918fa9048baa6b0d6be3b0cc463b08d6101ac0029",
  "source": "pragma solidity >=0.4.21 <0.6.0;\n\ncontract Applicaboard {\n  event NewApplication(uint applicationId,\n                       address applicant,\n                       string text);\n\n  event NewResponse(uint applicationId,\n                    address applicant,\n                    string text,\n                    string response);\n\n  struct Application {\n    address applicant;\n    string text;\n    bool resolved;\n    string response;\n  }\n\n  address _owner;\n\n  Application[] public _applications;\n\n  constructor() public {\n    _owner = msg.sender;\n  }\n\n  function getApplicationsCount() public view returns (uint) {\n    return _applications.length;\n  }\n\n  function createApplication(string memory text) public {\n    Application memory application = Application(msg.sender, text, false, '');\n\n    uint applicationId = _applications.push(application) - 1;\n\n    emit NewApplication(applicationId,\n                        application.applicant,\n                        application.text);\n  }\n\n  function createResponse(uint applicationId, string memory response) public {\n    require(msg.sender == _owner);\n\n    Application storage application = _applications[applicationId];\n\n    require(!application.resolved);\n\n    application.resolved = true;\n    application.response = response;\n\n    emit NewResponse(applicationId,\n                     application.applicant,\n                     application.text,\n                     application.response);\n  }\n}\n",
  "sourcePath": "/home/kotovalexarian/repos/github/crypto-libertarian/applicaboard/contracts/Applicaboard.sol",
  "compiler": {
    "name": "solc",
    "version": "0.5.0+commit.1d4f565a.Emscripten.clang"
  },
  "schemaVersion": "3.0.2",
  "updatedAt": "2019-03-02T03:01:45.785Z",
  "devdoc": {
    "methods": {}
  },
  "userdoc": {
    "methods": {}
  }
}